{
  "_format": "hh-sol-artifact-1",
  "contractName": "Voting",
  "sourceName": "contracts/Voting.sol",
  "abi": [
    {
      "inputs": [],
      "stateMutability": "nonpayable",
      "type": "constructor"
    },
    {
      "anonymous": false,
      "inputs": [
        {
          "indexed": false,
          "internalType": "address",
          "name": "recipient",
          "type": "address"
        },
        {
          "indexed": false,
          "internalType": "address",
          "name": "candId",
          "type": "address"
        },
        {
          "indexed": false,
          "internalType": "string",
          "name": "candidatename",
          "type": "string"
        }
      ],
      "name": "addCandidateEvent",
      "type": "event"
    },
    {
      "anonymous": false,
      "inputs": [
        {
          "indexed": false,
          "internalType": "uint256",
          "name": "candidateId",
          "type": "uint256"
        },
        {
          "indexed": false,
          "internalType": "address",
          "name": "voter",
          "type": "address"
        }
      ],
      "name": "voteEvent",
      "type": "event"
    },
    {
      "inputs": [
        {
          "internalType": "address",
          "name": "id",
          "type": "address"
        },
        {
          "internalType": "string",
          "name": "name",
          "type": "string"
        },
        {
          "internalType": "string",
          "name": "url",
          "type": "string"
        },
        {
          "internalType": "string",
          "name": "filename",
          "type": "string"
        }
      ],
      "name": "addCandidate",
      "outputs": [],
      "stateMutability": "nonpayable",
      "type": "function"
    },
    {
      "inputs": [
        {
          "internalType": "address",
          "name": "id",
          "type": "address"
        }
      ],
      "name": "allowToVote",
      "outputs": [],
      "stateMutability": "nonpayable",
      "type": "function"
    },
    {
      "inputs": [],
      "name": "chairperson",
      "outputs": [
        {
          "internalType": "address",
          "name": "",
          "type": "address"
        }
      ],
      "stateMutability": "view",
      "type": "function"
    },
    {
      "inputs": [],
      "name": "getAllCandidates",
      "outputs": [
        {
          "components": [
            {
              "internalType": "string",
              "name": "name",
              "type": "string"
            },
            {
              "internalType": "address",
              "name": "addr",
              "type": "address"
            },
            {
              "internalType": "uint256",
              "name": "id",
              "type": "uint256"
            },
            {
              "internalType": "string",
              "name": "url",
              "type": "string"
            },
            {
              "internalType": "uint256",
              "name": "voteCount",
              "type": "uint256"
            },
            {
              "internalType": "string",
              "name": "filename",
              "type": "string"
            }
          ],
          "internalType": "struct Voting.Candidate[]",
          "name": "",
          "type": "tuple[]"
        }
      ],
      "stateMutability": "view",
      "type": "function"
    },
    {
      "inputs": [],
      "name": "getAllRequests",
      "outputs": [
        {
          "internalType": "address[]",
          "name": "",
          "type": "address[]"
        }
      ],
      "stateMutability": "view",
      "type": "function"
    },
    {
      "inputs": [],
      "name": "getWinner",
      "outputs": [
        {
          "internalType": "uint256",
          "name": "",
          "type": "uint256"
        },
        {
          "internalType": "uint256",
          "name": "",
          "type": "uint256"
        }
      ],
      "stateMutability": "view",
      "type": "function"
    },
    {
      "inputs": [
        {
          "internalType": "address",
          "name": "addr",
          "type": "address"
        }
      ],
      "name": "hasAlreadyVoted",
      "outputs": [
        {
          "internalType": "bool",
          "name": "",
          "type": "bool"
        }
      ],
      "stateMutability": "view",
      "type": "function"
    },
    {
      "inputs": [
        {
          "internalType": "address",
          "name": "addr",
          "type": "address"
        }
      ],
      "name": "isEligible",
      "outputs": [
        {
          "internalType": "bool",
          "name": "",
          "type": "bool"
        }
      ],
      "stateMutability": "view",
      "type": "function"
    },
    {
      "inputs": [
        {
          "internalType": "address",
          "name": "id",
          "type": "address"
        }
      ],
      "name": "requestEligiblity",
      "outputs": [],
      "stateMutability": "nonpayable",
      "type": "function"
    },
    {
      "inputs": [
        {
          "internalType": "uint256",
          "name": "candidateId",
          "type": "uint256"
        }
      ],
      "name": "vote",
      "outputs": [],
      "stateMutability": "nonpayable",
      "type": "function"
    }
  ],
  "bytecode": "0x608060405234801561001057600080fd5b50336000806101000a81548173ffffffffffffffffffffffffffffffffffffffff021916908373ffffffffffffffffffffffffffffffffffffffff160217905550611a57806100606000396000f3fe608060405234801561001057600080fd5b506004361061009e5760003560e01c80638574d5b0116100665780638574d5b0146101475780638e7ea5b214610177578063a82cd0b214610196578063dc001a3d146101b2578063fb1a002a146101ce5761009e565b80630121b93f146100a35780630df7afab146100bf5780632e4176cf146100db5780632e6997fe146100f957806366e305fd14610117575b600080fd5b6100bd60048036038101906100b89190610e14565b6101ec565b005b6100d960048036038101906100d49190610fe5565b61031c565b005b6100e361051e565b6040516100f091906110af565b60405180910390f35b610101610542565b60405161010e91906112c0565b60405180910390f35b610131600480360381019061012c91906112e2565b6107c1565b60405161013e919061132a565b60405180910390f35b610161600480360381019061015c91906112e2565b610817565b60405161016e919061132a565b60405180910390f35b61017f610870565b60405161018d929190611354565b60405180910390f35b6101b060048036038101906101ab91906112e2565b610924565b005b6101cc60048036038101906101c791906112e2565b610b54565b005b6101d6610c15565b6040516101e3919061142c565b60405180910390f35b6000600260003373ffffffffffffffffffffffffffffffffffffffff1673ffffffffffffffffffffffffffffffffffffffff1681526020019081526020016000209050600015158160000160009054906101000a900460ff16151514610287576040517f08c379a000000000000000000000000000000000000000000000000000000000815260040161027e906114ab565b60405180910390fd5b6001828154811061029b5761029a6114cb565b5b906000526020600020906006020160040160008154809291906102bd90611529565b919050555060018160000160006101000a81548160ff0219169083151502179055507ff25ec597e25c61c8d33c6d9606a744d86469ca271743676568571bac47ebe0848233604051610310929190611571565b60405180910390a15050565b60008054906101000a900473ffffffffffffffffffffffffffffffffffffffff1673ffffffffffffffffffffffffffffffffffffffff163373ffffffffffffffffffffffffffffffffffffffff16146103aa576040517f08c379a00000000000000000000000000000000000000000000000000000000081526004016103a19061160c565b60405180910390fd5b60016040518060c001604052808581526020018673ffffffffffffffffffffffffffffffffffffffff1681526020016000600180549050146103fc57600180805490506103f7919061162c565b6103ff565b60005b8152602001848152602001600081526020018381525090806001815401808255809150506001900390600052602060002090600602016000909190919091506000820151816000019081610453919061186c565b5060208201518160010160006101000a81548173ffffffffffffffffffffffffffffffffffffffff021916908373ffffffffffffffffffffffffffffffffffffffff1602179055506040820151816002015560608201518160030190816104ba919061186c565b506080820151816004015560a08201518160050190816104da919061186c565b5050507f7e1539d2cbf8b1439c6c605d319b9eaa8fc5aa5da928fb88763b1553d3df10d233858560405161051093929190611977565b60405180910390a150505050565b60008054906101000a900473ffffffffffffffffffffffffffffffffffffffff1681565b60606001805480602002602001604051908101604052809291908181526020016000905b828210156107b857838290600052602060002090600602016040518060c00160405290816000820180546105999061168f565b80601f01602080910402602001604051908101604052809291908181526020018280546105c59061168f565b80156106125780601f106105e757610100808354040283529160200191610612565b820191906000526020600020905b8154815290600101906020018083116105f557829003601f168201915b505050505081526020016001820160009054906101000a900473ffffffffffffffffffffffffffffffffffffffff1673ffffffffffffffffffffffffffffffffffffffff1673ffffffffffffffffffffffffffffffffffffffff1681526020016002820154815260200160038201805461068b9061168f565b80601f01602080910402602001604051908101604052809291908181526020018280546106b79061168f565b80156107045780601f106106d957610100808354040283529160200191610704565b820191906000526020600020905b8154815290600101906020018083116106e757829003601f168201915b50505050508152602001600482015481526020016005820180546107279061168f565b80601f01602080910402602001604051908101604052809291908181526020018280546107539061168f565b80156107a05780601f10610775576101008083540402835291602001916107a0565b820191906000526020600020905b81548152906001019060200180831161078357829003601f168201915b50505050508152505081526020019060010190610566565b50505050905090565b6000600360008373ffffffffffffffffffffffffffffffffffffffff1673ffffffffffffffffffffffffffffffffffffffff16815260200190815260200160002060009054906101000a900460ff169050919050565b6000600260008373ffffffffffffffffffffffffffffffffffffffff1673ffffffffffffffffffffffffffffffffffffffff16815260200190815260200160002060000160009054906101000a900460ff169050919050565b60008060008060005b60018054905081101561091757826001828154811061089b5761089a6114cb565b5b906000526020600020906006020160040154111561090457600181815481106108c7576108c66114cb565b5b9060005260206000209060060201600401549250600181815481106108ef576108ee6114cb565b5b90600052602060002090600602016002015491505b808061090f90611529565b915050610879565b5081819350935050509091565b60008054906101000a900473ffffffffffffffffffffffffffffffffffffffff1673ffffffffffffffffffffffffffffffffffffffff163373ffffffffffffffffffffffffffffffffffffffff16146109b2576040517f08c379a00000000000000000000000000000000000000000000000000000000081526004016109a990611a01565b60405180910390fd5b604051806020016040528060001515815250600260008373ffffffffffffffffffffffffffffffffffffffff1673ffffffffffffffffffffffffffffffffffffffff16815260200190815260200160002060008201518160000160006101000a81548160ff0219169083151502179055509050506001600360008373ffffffffffffffffffffffffffffffffffffffff1673ffffffffffffffffffffffffffffffffffffffff16815260200190815260200160002060006101000a81548160ff02191690831515021790555060005b600580549050811015610b50578173ffffffffffffffffffffffffffffffffffffffff1660058281548110610ab957610ab86114cb565b5b9060005260206000200160000160009054906101000a900473ffffffffffffffffffffffffffffffffffffffff1673ffffffffffffffffffffffffffffffffffffffff1603610b3d57600160058281548110610b1857610b176114cb565b5b9060005260206000200160000160146101000a81548160ff0219169083151502179055505b8080610b4890611529565b915050610a81565b5050565b600560405180604001604052808373ffffffffffffffffffffffffffffffffffffffff168152602001600015158152509080600181540180825580915050600190039060005260206000200160009091909190915060008201518160000160006101000a81548173ffffffffffffffffffffffffffffffffffffffff021916908373ffffffffffffffffffffffffffffffffffffffff16021790555060208201518160000160146101000a81548160ff021916908315150217905550505050565b60606000805b600580549050811015610c7d5760058181548110610c3c57610c3b6114cb565b5b9060005260206000200160000160149054906101000a900460ff16610c6a578180610c6690611529565b9250505b8080610c7590611529565b915050610c1b565b5060008167ffffffffffffffff811115610c9a57610c99610eba565b5b604051908082528060200260200182016040528015610cc85781602001602082028036833780820191505090505b5090506000805b600580549050811015610dc05760058181548110610cf057610cef6114cb565b5b9060005260206000200160000160149054906101000a900460ff16610dad5760058181548110610d2357610d226114cb565b5b9060005260206000200160000160009054906101000a900473ffffffffffffffffffffffffffffffffffffffff16838381518110610d6457610d636114cb565b5b602002602001019073ffffffffffffffffffffffffffffffffffffffff16908173ffffffffffffffffffffffffffffffffffffffff16815250508180610da990611529565b9250505b8080610db890611529565b915050610ccf565b5081935050505090565b6000604051905090565b600080fd5b600080fd5b6000819050919050565b610df181610dde565b8114610dfc57600080fd5b50565b600081359050610e0e81610de8565b92915050565b600060208284031215610e2a57610e29610dd4565b5b6000610e3884828501610dff565b91505092915050565b600073ffffffffffffffffffffffffffffffffffffffff82169050919050565b6000610e6c82610e41565b9050919050565b610e7c81610e61565b8114610e8757600080fd5b50565b600081359050610e9981610e73565b92915050565b600080fd5b600080fd5b6000601f19601f8301169050919050565b7f4e487b7100000000000000000000000000000000000000000000000000000000600052604160045260246000fd5b610ef282610ea9565b810181811067ffffffffffffffff82111715610f1157610f10610eba565b5b80604052505050565b6000610f24610dca565b9050610f308282610ee9565b919050565b600067ffffffffffffffff821115610f5057610f4f610eba565b5b610f5982610ea9565b9050602081019050919050565b82818337600083830152505050565b6000610f88610f8384610f35565b610f1a565b905082815260208101848484011115610fa457610fa3610ea4565b5b610faf848285610f66565b509392505050565b600082601f830112610fcc57610fcb610e9f565b5b8135610fdc848260208601610f75565b91505092915050565b60008060008060808587031215610fff57610ffe610dd4565b5b600061100d87828801610e8a565b945050602085013567ffffffffffffffff81111561102e5761102d610dd9565b5b61103a87828801610fb7565b935050604085013567ffffffffffffffff81111561105b5761105a610dd9565b5b61106787828801610fb7565b925050606085013567ffffffffffffffff81111561108857611087610dd9565b5b61109487828801610fb7565b91505092959194509250565b6110a981610e61565b82525050565b60006020820190506110c460008301846110a0565b92915050565b600081519050919050565b600082825260208201905092915050565b6000819050602082019050919050565b600081519050919050565b600082825260208201905092915050565b60005b83811015611130578082015181840152602081019050611115565b60008484015250505050565b6000611147826110f6565b6111518185611101565b9350611161818560208601611112565b61116a81610ea9565b840191505092915050565b61117e81610e61565b82525050565b61118d81610dde565b82525050565b600060c08301600083015184820360008601526111b0828261113c565b91505060208301516111c56020860182611175565b5060408301516111d86040860182611184565b50606083015184820360608601526111f0828261113c565b91505060808301516112056080860182611184565b5060a083015184820360a086015261121d828261113c565b9150508091505092915050565b60006112368383611193565b905092915050565b6000602082019050919050565b6000611256826110ca565b61126081856110d5565b935083602082028501611272856110e6565b8060005b858110156112ae578484038952815161128f858261122a565b945061129a8361123e565b925060208a01995050600181019050611276565b50829750879550505050505092915050565b600060208201905081810360008301526112da818461124b565b905092915050565b6000602082840312156112f8576112f7610dd4565b5b600061130684828501610e8a565b91505092915050565b60008115159050919050565b6113248161130f565b82525050565b600060208201905061133f600083018461131b565b92915050565b61134e81610dde565b82525050565b60006040820190506113696000830185611345565b6113766020830184611345565b9392505050565b600081519050919050565b600082825260208201905092915050565b6000819050602082019050919050565b60006113b58383611175565b60208301905092915050565b6000602082019050919050565b60006113d98261137d565b6113e38185611388565b93506113ee83611399565b8060005b8381101561141f57815161140688826113a9565b9750611411836113c1565b9250506001810190506113f2565b5085935050505092915050565b6000602082019050818103600083015261144681846113ce565b905092915050565b600082825260208201905092915050565b7f566f7465722068617320616c726561647920766f746564000000000000000000600082015250565b600061149560178361144e565b91506114a08261145f565b602082019050919050565b600060208201905081810360008301526114c481611488565b9050919050565b7f4e487b7100000000000000000000000000000000000000000000000000000000600052603260045260246000fd5b7f4e487b7100000000000000000000000000000000000000000000000000000000600052601160045260246000fd5b600061153482610dde565b91507fffffffffffffffffffffffffffffffffffffffffffffffffffffffffffffffff8203611566576115656114fa565b5b600182019050919050565b60006040820190506115866000830185611345565b61159360208301846110a0565b9392505050565b7f6f6e6c79206368616972706572736f6e20697320616c6c6f77656420746f206160008201527f64642063616e6469646174650000000000000000000000000000000000000000602082015250565b60006115f6602c8361144e565b91506116018261159a565b604082019050919050565b60006020820190508181036000830152611625816115e9565b9050919050565b600061163782610dde565b915061164283610dde565b925082820390508181111561165a576116596114fa565b5b92915050565b7f4e487b7100000000000000000000000000000000000000000000000000000000600052602260045260246000fd5b600060028204905060018216806116a757607f821691505b6020821081036116ba576116b9611660565b5b50919050565b60008190508160005260206000209050919050565b60006020601f8301049050919050565b600082821b905092915050565b6000600883026117227fffffffffffffffffffffffffffffffffffffffffffffffffffffffffffffffff826116e5565b61172c86836116e5565b95508019841693508086168417925050509392505050565b6000819050919050565b600061176961176461175f84610dde565b611744565b610dde565b9050919050565b6000819050919050565b6117838361174e565b61179761178f82611770565b8484546116f2565b825550505050565b600090565b6117ac61179f565b6117b781848461177a565b505050565b5b818110156117db576117d06000826117a4565b6001810190506117bd565b5050565b601f821115611820576117f1816116c0565b6117fa846116d5565b81016020851015611809578190505b61181d611815856116d5565b8301826117bc565b50505b505050565b600082821c905092915050565b600061184360001984600802611825565b1980831691505092915050565b600061185c8383611832565b9150826002028217905092915050565b611875826110f6565b67ffffffffffffffff81111561188e5761188d610eba565b5b611898825461168f565b6118a38282856117df565b600060209050601f8311600181146118d657600084156118c4578287015190505b6118ce8582611850565b865550611936565b601f1984166118e4866116c0565b60005b8281101561190c578489015182556001820191506020850194506020810190506118e7565b868310156119295784890151611925601f891682611832565b8355505b6001600288020188555050505b505050505050565b6000611949826110f6565b611953818561144e565b9350611963818560208601611112565b61196c81610ea9565b840191505092915050565b600060608201905061198c60008301866110a0565b61199960208301856110a0565b81810360408301526119ab818461193e565b9050949350505050565b7f6f6e6c7920616c6c6f77656420666f72206368616972706572736f6e00000000600082015250565b60006119eb601c8361144e565b91506119f6826119b5565b602082019050919050565b60006020820190508181036000830152611a1a816119de565b905091905056fea2646970667358221220e0e6dc3bfc3dc94c7b437cf598500cd293754ab6470007f63426a1a14384571264736f6c63430008130033",
  "linkReferences": {},
  "deployedLinkReferences": {}
}