{
  "_format": "hh-sol-artifact-1",
  "contractName": "Voting",
  "sourceName": "contracts/Voting.sol",
  "abi": [
    {
      "inputs": [],
      "stateMutability": "nonpayable",
      "type": "constructor"
    },
    {
      "anonymous": false,
      "inputs": [
        {
          "indexed": false,
          "internalType": "address",
          "name": "recipient",
          "type": "address"
        },
        {
          "indexed": false,
          "internalType": "address",
          "name": "candId",
          "type": "address"
        },
        {
          "indexed": false,
          "internalType": "string",
          "name": "candidatename",
          "type": "string"
        }
      ],
      "name": "addCandidateEvent",
      "type": "event"
    },
    {
      "anonymous": false,
      "inputs": [
        {
          "indexed": false,
          "internalType": "uint256",
          "name": "candidateId",
          "type": "uint256"
        },
        {
          "indexed": false,
          "internalType": "address",
          "name": "voter",
          "type": "address"
        }
      ],
      "name": "voteEvent",
      "type": "event"
    },
    {
      "inputs": [
        {
          "internalType": "address",
          "name": "id",
          "type": "address"
        },
        {
          "internalType": "string",
          "name": "name",
          "type": "string"
        }
      ],
      "name": "addCandidate",
      "outputs": [],
      "stateMutability": "nonpayable",
      "type": "function"
    },
    {
      "inputs": [
        {
          "internalType": "address",
          "name": "id",
          "type": "address"
        }
      ],
      "name": "allowToVote",
      "outputs": [],
      "stateMutability": "nonpayable",
      "type": "function"
    },
    {
      "inputs": [],
      "name": "chairperson",
      "outputs": [
        {
          "internalType": "address",
          "name": "",
          "type": "address"
        }
      ],
      "stateMutability": "view",
      "type": "function"
    },
    {
      "inputs": [],
      "name": "getAllCandidates",
      "outputs": [
        {
          "components": [
            {
              "internalType": "string",
              "name": "name",
              "type": "string"
            },
            {
              "internalType": "address",
              "name": "addr",
              "type": "address"
            },
            {
              "internalType": "uint256",
              "name": "id",
              "type": "uint256"
            },
            {
              "internalType": "uint256",
              "name": "voteCount",
              "type": "uint256"
            }
          ],
          "internalType": "struct Voting.Candidate[]",
          "name": "",
          "type": "tuple[]"
        }
      ],
      "stateMutability": "view",
      "type": "function"
    },
    {
      "inputs": [],
      "name": "getAllRequests",
      "outputs": [
        {
          "internalType": "address[]",
          "name": "",
          "type": "address[]"
        }
      ],
      "stateMutability": "view",
      "type": "function"
    },
    {
      "inputs": [],
      "name": "getWinner",
      "outputs": [
        {
          "internalType": "uint256",
          "name": "",
          "type": "uint256"
        },
        {
          "internalType": "uint256",
          "name": "",
          "type": "uint256"
        }
      ],
      "stateMutability": "view",
      "type": "function"
    },
    {
      "inputs": [
        {
          "internalType": "address",
          "name": "addr",
          "type": "address"
        }
      ],
      "name": "isEligible",
      "outputs": [
        {
          "internalType": "bool",
          "name": "",
          "type": "bool"
        }
      ],
      "stateMutability": "view",
      "type": "function"
    },
    {
      "inputs": [
        {
          "internalType": "address",
          "name": "id",
          "type": "address"
        }
      ],
      "name": "requestEligiblity",
      "outputs": [],
      "stateMutability": "nonpayable",
      "type": "function"
    },
    {
      "inputs": [
        {
          "internalType": "uint256",
          "name": "candidateId",
          "type": "uint256"
        }
      ],
      "name": "vote",
      "outputs": [],
      "stateMutability": "nonpayable",
      "type": "function"
    }
  ],
  "bytecode": "0x608060405234801561001057600080fd5b50336000806101000a81548173ffffffffffffffffffffffffffffffffffffffff021916908373ffffffffffffffffffffffffffffffffffffffff1602179055506117df806100606000396000f3fe608060405234801561001057600080fd5b50600436106100935760003560e01c80638e7ea5b2116100665780638e7ea5b2146101205780639a594f061461013f578063a82cd0b21461015b578063dc001a3d14610177578063fb1a002a1461019357610093565b80630121b93f146100985780632e4176cf146100b45780632e6997fe146100d257806366e305fd146100f0575b600080fd5b6100b260048036038101906100ad9190610c2f565b6101b1565b005b6100bc6102ee565b6040516100c99190610c9d565b60405180910390f35b6100da610312565b6040516100e79190610e8b565b60405180910390f35b61010a60048036038101906101059190610ed9565b61046d565b6040516101179190610f21565b60405180910390f35b6101286104c3565b604051610136929190610f4b565b60405180910390f35b610159600480360381019061015491906110a9565b610577565b005b61017560048036038101906101709190610ed9565b61073f565b005b610191600480360381019061018c9190610ed9565b61096f565b005b61019b610a30565b6040516101a891906111b4565b60405180910390f35b6000600260003373ffffffffffffffffffffffffffffffffffffffff1673ffffffffffffffffffffffffffffffffffffffff1681526020019081526020016000206040518060200160405290816000820160009054906101000a900460ff1615151515815250509050600015158160000151151514610265576040517f08c379a000000000000000000000000000000000000000000000000000000000815260040161025c90611233565b60405180910390fd5b6001828154811061027957610278611253565b5b9060005260206000209060040201600301600081548092919061029b906112b1565b919050555060018160000190151590811515815250507ff25ec597e25c61c8d33c6d9606a744d86469ca271743676568571bac47ebe08482336040516102e29291906112f9565b60405180910390a15050565b60008054906101000a900473ffffffffffffffffffffffffffffffffffffffff1681565b60606001805480602002602001604051908101604052809291908181526020016000905b82821015610464578382906000526020600020906004020160405180608001604052908160008201805461036990611351565b80601f016020809104026020016040519081016040528092919081815260200182805461039590611351565b80156103e25780601f106103b7576101008083540402835291602001916103e2565b820191906000526020600020905b8154815290600101906020018083116103c557829003601f168201915b505050505081526020016001820160009054906101000a900473ffffffffffffffffffffffffffffffffffffffff1673ffffffffffffffffffffffffffffffffffffffff1673ffffffffffffffffffffffffffffffffffffffff1681526020016002820154815260200160038201548152505081526020019060010190610336565b50505050905090565b6000600360008373ffffffffffffffffffffffffffffffffffffffff1673ffffffffffffffffffffffffffffffffffffffff16815260200190815260200160002060009054906101000a900460ff169050919050565b60008060008060005b60018054905081101561056a5782600182815481106104ee576104ed611253565b5b9060005260206000209060040201600301541115610557576001818154811061051a57610519611253565b5b90600052602060002090600402016003015492506001818154811061054257610541611253565b5b90600052602060002090600402016002015491505b8080610562906112b1565b9150506104cc565b5081819350935050509091565b60008054906101000a900473ffffffffffffffffffffffffffffffffffffffff1673ffffffffffffffffffffffffffffffffffffffff163373ffffffffffffffffffffffffffffffffffffffff1614610605576040517f08c379a00000000000000000000000000000000000000000000000000000000081526004016105fc906113f4565b60405180910390fd5b600160405180608001604052808381526020018473ffffffffffffffffffffffffffffffffffffffff16815260200160006001805490501461065757600180805490506106529190611414565b61065a565b60005b81526020016000815250908060018154018082558091505060019003906000526020600020906004020160009091909190915060008201518160000190816106a291906115f4565b5060208201518160010160006101000a81548173ffffffffffffffffffffffffffffffffffffffff021916908373ffffffffffffffffffffffffffffffffffffffff160217905550604082015181600201556060820151816003015550507f7e1539d2cbf8b1439c6c605d319b9eaa8fc5aa5da928fb88763b1553d3df10d2338383604051610733939291906116ff565b60405180910390a15050565b60008054906101000a900473ffffffffffffffffffffffffffffffffffffffff1673ffffffffffffffffffffffffffffffffffffffff163373ffffffffffffffffffffffffffffffffffffffff16146107cd576040517f08c379a00000000000000000000000000000000000000000000000000000000081526004016107c490611789565b60405180910390fd5b604051806020016040528060001515815250600260008373ffffffffffffffffffffffffffffffffffffffff1673ffffffffffffffffffffffffffffffffffffffff16815260200190815260200160002060008201518160000160006101000a81548160ff0219169083151502179055509050506001600360008373ffffffffffffffffffffffffffffffffffffffff1673ffffffffffffffffffffffffffffffffffffffff16815260200190815260200160002060006101000a81548160ff02191690831515021790555060005b60058054905081101561096b578173ffffffffffffffffffffffffffffffffffffffff16600582815481106108d4576108d3611253565b5b9060005260206000200160000160009054906101000a900473ffffffffffffffffffffffffffffffffffffffff1673ffffffffffffffffffffffffffffffffffffffff16036109585760016005828154811061093357610932611253565b5b9060005260206000200160000160146101000a81548160ff0219169083151502179055505b8080610963906112b1565b91505061089c565b5050565b600560405180604001604052808373ffffffffffffffffffffffffffffffffffffffff168152602001600015158152509080600181540180825580915050600190039060005260206000200160009091909190915060008201518160000160006101000a81548173ffffffffffffffffffffffffffffffffffffffff021916908373ffffffffffffffffffffffffffffffffffffffff16021790555060208201518160000160146101000a81548160ff021916908315150217905550505050565b60606000805b600580549050811015610a985760058181548110610a5757610a56611253565b5b9060005260206000200160000160149054906101000a900460ff16610a85578180610a81906112b1565b9250505b8080610a90906112b1565b915050610a36565b5060008167ffffffffffffffff811115610ab557610ab4610f7e565b5b604051908082528060200260200182016040528015610ae35781602001602082028036833780820191505090505b5090506000805b600580549050811015610bdb5760058181548110610b0b57610b0a611253565b5b9060005260206000200160000160149054906101000a900460ff16610bc85760058181548110610b3e57610b3d611253565b5b9060005260206000200160000160009054906101000a900473ffffffffffffffffffffffffffffffffffffffff16838381518110610b7f57610b7e611253565b5b602002602001019073ffffffffffffffffffffffffffffffffffffffff16908173ffffffffffffffffffffffffffffffffffffffff16815250508180610bc4906112b1565b9250505b8080610bd3906112b1565b915050610aea565b5081935050505090565b6000604051905090565b600080fd5b600080fd5b6000819050919050565b610c0c81610bf9565b8114610c1757600080fd5b50565b600081359050610c2981610c03565b92915050565b600060208284031215610c4557610c44610bef565b5b6000610c5384828501610c1a565b91505092915050565b600073ffffffffffffffffffffffffffffffffffffffff82169050919050565b6000610c8782610c5c565b9050919050565b610c9781610c7c565b82525050565b6000602082019050610cb26000830184610c8e565b92915050565b600081519050919050565b600082825260208201905092915050565b6000819050602082019050919050565b600081519050919050565b600082825260208201905092915050565b60005b83811015610d1e578082015181840152602081019050610d03565b60008484015250505050565b6000601f19601f8301169050919050565b6000610d4682610ce4565b610d508185610cef565b9350610d60818560208601610d00565b610d6981610d2a565b840191505092915050565b610d7d81610c7c565b82525050565b610d8c81610bf9565b82525050565b60006080830160008301518482036000860152610daf8282610d3b565b9150506020830151610dc46020860182610d74565b506040830151610dd76040860182610d83565b506060830151610dea6060860182610d83565b508091505092915050565b6000610e018383610d92565b905092915050565b6000602082019050919050565b6000610e2182610cb8565b610e2b8185610cc3565b935083602082028501610e3d85610cd4565b8060005b85811015610e795784840389528151610e5a8582610df5565b9450610e6583610e09565b925060208a01995050600181019050610e41565b50829750879550505050505092915050565b60006020820190508181036000830152610ea58184610e16565b905092915050565b610eb681610c7c565b8114610ec157600080fd5b50565b600081359050610ed381610ead565b92915050565b600060208284031215610eef57610eee610bef565b5b6000610efd84828501610ec4565b91505092915050565b60008115159050919050565b610f1b81610f06565b82525050565b6000602082019050610f366000830184610f12565b92915050565b610f4581610bf9565b82525050565b6000604082019050610f606000830185610f3c565b610f6d6020830184610f3c565b9392505050565b600080fd5b600080fd5b7f4e487b7100000000000000000000000000000000000000000000000000000000600052604160045260246000fd5b610fb682610d2a565b810181811067ffffffffffffffff82111715610fd557610fd4610f7e565b5b80604052505050565b6000610fe8610be5565b9050610ff48282610fad565b919050565b600067ffffffffffffffff82111561101457611013610f7e565b5b61101d82610d2a565b9050602081019050919050565b82818337600083830152505050565b600061104c61104784610ff9565b610fde565b90508281526020810184848401111561106857611067610f79565b5b61107384828561102a565b509392505050565b600082601f8301126110905761108f610f74565b5b81356110a0848260208601611039565b91505092915050565b600080604083850312156110c0576110bf610bef565b5b60006110ce85828601610ec4565b925050602083013567ffffffffffffffff8111156110ef576110ee610bf4565b5b6110fb8582860161107b565b9150509250929050565b600081519050919050565b600082825260208201905092915050565b6000819050602082019050919050565b600061113d8383610d74565b60208301905092915050565b6000602082019050919050565b600061116182611105565b61116b8185611110565b935061117683611121565b8060005b838110156111a757815161118e8882611131565b975061119983611149565b92505060018101905061117a565b5085935050505092915050565b600060208201905081810360008301526111ce8184611156565b905092915050565b600082825260208201905092915050565b7f566f7465722068617320616c726561647920766f746564000000000000000000600082015250565b600061121d6017836111d6565b9150611228826111e7565b602082019050919050565b6000602082019050818103600083015261124c81611210565b9050919050565b7f4e487b7100000000000000000000000000000000000000000000000000000000600052603260045260246000fd5b7f4e487b7100000000000000000000000000000000000000000000000000000000600052601160045260246000fd5b60006112bc82610bf9565b91507fffffffffffffffffffffffffffffffffffffffffffffffffffffffffffffffff82036112ee576112ed611282565b5b600182019050919050565b600060408201905061130e6000830185610f3c565b61131b6020830184610c8e565b9392505050565b7f4e487b7100000000000000000000000000000000000000000000000000000000600052602260045260246000fd5b6000600282049050600182168061136957607f821691505b60208210810361137c5761137b611322565b5b50919050565b7f6f6e6c79206368616972706572736f6e20697320616c6c6f77656420746f206160008201527f64642063616e6469646174650000000000000000000000000000000000000000602082015250565b60006113de602c836111d6565b91506113e982611382565b604082019050919050565b6000602082019050818103600083015261140d816113d1565b9050919050565b600061141f82610bf9565b915061142a83610bf9565b925082820390508181111561144257611441611282565b5b92915050565b60008190508160005260206000209050919050565b60006020601f8301049050919050565b600082821b905092915050565b6000600883026114aa7fffffffffffffffffffffffffffffffffffffffffffffffffffffffffffffffff8261146d565b6114b4868361146d565b95508019841693508086168417925050509392505050565b6000819050919050565b60006114f16114ec6114e784610bf9565b6114cc565b610bf9565b9050919050565b6000819050919050565b61150b836114d6565b61151f611517826114f8565b84845461147a565b825550505050565b600090565b611534611527565b61153f818484611502565b505050565b5b818110156115635761155860008261152c565b600181019050611545565b5050565b601f8211156115a85761157981611448565b6115828461145d565b81016020851015611591578190505b6115a561159d8561145d565b830182611544565b50505b505050565b600082821c905092915050565b60006115cb600019846008026115ad565b1980831691505092915050565b60006115e483836115ba565b9150826002028217905092915050565b6115fd82610ce4565b67ffffffffffffffff81111561161657611615610f7e565b5b6116208254611351565b61162b828285611567565b600060209050601f83116001811461165e576000841561164c578287015190505b61165685826115d8565b8655506116be565b601f19841661166c86611448565b60005b828110156116945784890151825560018201915060208501945060208101905061166f565b868310156116b157848901516116ad601f8916826115ba565b8355505b6001600288020188555050505b505050505050565b60006116d182610ce4565b6116db81856111d6565b93506116eb818560208601610d00565b6116f481610d2a565b840191505092915050565b60006060820190506117146000830186610c8e565b6117216020830185610c8e565b818103604083015261173381846116c6565b9050949350505050565b7f6f6e6c7920616c6c6f77656420666f72206368616972706572736f6e00000000600082015250565b6000611773601c836111d6565b915061177e8261173d565b602082019050919050565b600060208201905081810360008301526117a281611766565b905091905056fea2646970667358221220b427e6beb8b6cee53cdfe0d7b4d72a9b6d329b1861b04c5c41912646500ba31164736f6c63430008130033",
  "linkReferences": {},
  "deployedLinkReferences": {}
}